:100000000C9462000C948A000C948A000C948A0070
:100010000C948A000C948A000C948A000C948A0038
:100020000C948A000C948A000C948A000C948A0028
:100030000C948A000C948A000C948A000C948A0018
:100040000C9417040C948A000C948A000C948A0077
:100050000C948A000C948A000C948A000C948A00F8
:100060000C948A000C948A000000000024002700F1
:100070002A0000000000250028002B0000000008D6
:10008000000201000003040700000000000000005F
:1000900000000000230026002900040404040404D6
:1000A0000404020202020202030303030303010227
:1000B00004081020408001020408102001020408F6
:1000C0001020E90511241FBECFEFD8E0DEBFCDBF61
:1000D00011E0A0E0B1E0ECEDF0E102C005900D927E
:1000E000AC37B107D9F721E0ACE7B1E001C01D9210
:1000F000AA3AB207E1F710E0C2E6D0E004C02197C7
:10010000FE010E946608C136D107C9F70E9461044A
:100110000C946C080C940000AF92BF92CF92DF92C7
:10012000EF92FF920F931F93CF93DF936C017B01AC
:100130008B01040F151FEB015E01AE18BF08C0173D
:10014000D10759F06991D601ED91FC910190F081B0
:10015000E02DC6010995892B79F7C501DF91CF9173
:100160001F910F91FF90EF90DF90CF90BF90AF90D5
:100170000895833081F028F4813099F08230A9F01D
:1001800008958730A9F08830C9F08430B1F48091A7
:1001900080008F7D03C0809180008F7780938000E6
:1001A000089584B58F7784BD089584B58F7DFBCF86
:1001B0008091B0008F778093B00008958091B00057
:1001C0008F7DF9CFCF93DF93282F30E0F901E458EA
:1001D000FF4F8491F901E255FF4FD491F901E656A2
:1001E000FF4FC491CC23A1F081110E94B900EC2FE4
:1001F000F0E0EE0FFF1FE057FF4FA591B491EC9197
:10020000ED2381E090E009F480E0DF91CF91089543
:1002100080E090E0FACF1F93CF93DF93282F30E058
:10022000F901E458FF4F8491F901E255FF4FD49151
:10023000F901E656FF4FC491CC23A9F0162F811186
:100240000E94B900EC2FF0E0EE0FFF1FEE58FF4FB9
:10025000A591B4918FB7F894EC91111108C0D09585
:10026000DE23DC938FBFDF91CF911F910895DE2BAA
:10027000F8CFCF93DF9390E0FC01E255FF4F24913C
:1002800086569F4FFC0184918823D1F090E0880F1F
:10029000991FFC01E859FF4FA591B491FC01EE585C
:1002A000FF4FC591D49161110EC09FB7F8948C9106
:1002B000E22FE0958E238C932881E223E8839FBF71
:1002C000DF91CF9108958FB7F894EC91E22BEC93E6
:1002D0008FBFF6CF3FB7F894809181019091820152
:1002E000A0918301B091840126B5A89B05C02F3F42
:1002F00019F00196A11DB11D3FBFBA2FA92F982F4C
:100300008827BC01CD01620F711D811D911D42E046
:10031000660F771F881F991F4A95D1F70895089592
:1003200090E080E00895FC0101900020E9F731970A
:10033000AF01481B590BBC0182E991E00C948C0081
:100340008F929F92AF92BF920F931F93CF93DF93A1
:10035000CDB7DEB7A1970FB6F894DEBF0FBECDBF05
:1003600019A2423008F44AE08E010F5D1F4F842E1F
:10037000912CB12CA12CA50194010E940806E62F16
:10038000B901CA01EA30F4F4E05DD801EE938D01C1
:10039000232B242B252B79F790E080E0109719F080
:1003A000CD010E949301A1960FB6F894DEBF0FBE57
:1003B000CDBFDF91CF911F910F91BF90AF909F90D4
:1003C0008F900895E95CE1CFCF93DF93EC0160E07B
:1003D0008E810E940B0161E08E810E940B0160E022
:1003E0008E810E940B018BE891E00197F1F7DF917C
:1003F000CF910895CF92DF92EF92FF920F931F93C8
:10040000CF93DF936C017C0187E0E80EF11CD0E014
:10041000C0E0062F10E0B8010C2E02C0759567955C
:100420000A94E2F76170F70181917F010E940B014C
:100430002196C430D10579F7C601DF91CF911F9184
:100440000F91FF90EF90DF90CF900C94E401CF924A
:10045000DF92EF92FF920F931F93CF93DF93EC0104
:10046000F62E642F8C810E940B018D818F3F19F035
:1004700060E00E940B010F2D10E08F8584FF25C0E6
:100480006E0187E0C80ED11CF12CE12CB8010E2CB6
:1004900002C0759567950A94E2F76170F601819143
:1004A0006F010E940B01FFEFEF1AFF0A88E0E816C8
:1004B000F10461F7CE01DF91CF911F910F91FF9071
:1004C000EF90DF90CF900C94E401B80184E0759533
:1004D00067958A95E1F7CE010E94FA016F2DCE0152
:1004E000DF91CF911F910F91FF90EF90DF90CF9010
:1004F0000C94FA0140E0682F82E991E00C94270205
:10050000CF93DF93613029F09091A101986090938F
:10051000A1016093A5011092A60190E49093A70118
:100520008093A801805C8093A90161E0809196018D
:100530000E943901809197018F3F19F061E00E947C
:10054000390161E0809198010E943901C2E9D1E04E
:100550009E01225931408091A10184FD0BC084E0AD
:1005600090E021962817390744F461E08E810E94BB
:100570003901EECF88E090E0F4CF8BE39DE0019766
:10058000F1F760E0809196010E940B0160E080919C
:1005900098010E940B01809197018F3F19F060E054
:1005A0000E940B018091A10184FD39C063E082E9C2
:1005B00091E00E94FA01CBE4D6E4CE010197F1F775
:1005C00063E082E991E00E94FA012197F1F763E08C
:1005D00082E991E00E94FA0183E592E00197F1F748
:1005E00062E082E991E00E94FA018091A1018062BB
:1005F0000E947A0284E08093A2018CE00E947A0239
:1006000081E00E947A028BE39FE10197F1F782E09B
:100610008093A30186E0DF91CF910C947A028062EF
:100620000E947A028BE496E40197F1F78091A10190
:1006300080620E947A0283E592E00197F1F780914F
:10064000A10180620E947A02D0CF9091A501891702
:1006500010F08FEF890FE82FF0E0EE56FE4F8489FF
:1006600080680C947A0241E00E94270281E090E0C9
:1006700008954F925F926F927F928F929F92AF9266
:10068000BF92CF92DF92EF92FF920F931F93CF937F
:100690006B017C01742EAC019B010E9461088823D0
:1006A00099F08CE091E0CF911F910F91FF90EF9026
:1006B000DF90CF90BF90AF909F908F907F906F9082
:1006C0005F904F900C94930146015701E894B7F85E
:1006D0002FEF3FEF4FE75FE7C501B4010E946108CC
:1006E00081110DC02FEF3FEF4FE75FE7C501B40168
:1006F0000E94970618161CF480E191E0D4CF2FEFEA
:100700003FEF4FE75FE4C701B6010E94EF071816FD
:100710001CF484E191E0C7CF2FEF3FEF4FE75FEC90
:10072000C701B6010E94970687FDF3CF20E030E0B5
:10073000A901C701B6010E94970610E000E087FFFB
:100740000CC041E06DE282E991E00E942702F7FAD5
:10075000F094F7F8F09401E010E0C0E060E070E0A1
:1007600080E09FE37C1641F020E030E040E251E47D
:100770000E949C06CF5FF6CFA70196010E942B0630
:100780004B015C010E940E072B013C014AE00E94D4
:10079000A001080F191FCC23C9F1C301B2010E94A7
:1007A0003D079B01AC01C501B4010E942A064B0123
:1007B0005C0141E06EE282E991E00E9427020F5F56
:1007C0001F4FC15018F120E030E040E251E4C50174
:1007D000B4010E94F4072B013C010E940E074B015B
:1007E000B12CA12C4AE0C501B4010E94A001080F60
:1007F000191FC501B4010E943D079B01AC01C30153
:10080000B2010E942A064B015C01DBCFC801CF91E7
:100810001F910F91FF90EF90DF90CF90BF90AF901E
:100820009F908F907F906F905F904F9008951F9250
:100830000F920FB60F9211242F933F938F939F9394
:10084000AF93BF9380917D0190917E01A0917F0134
:10085000B091800130917C0123E0230F2D3758F5B2
:100860000196A11DB11D20937C0180937D01909381
:100870007E01A0937F01B0938001809181019091CE
:100880008201A0918301B09184010196A11DB11D47
:100890008093810190938201A0938301B09384019E
:1008A000BF91AF919F918F913F912F910F900FBE6C
:1008B0000F901F90189526E8230F0296A11DB11DD9
:1008C000D2CF789484B5826084BD84B5816084BDC4
:1008D00085B5826085BD85B5816085BD80916E00DE
:1008E000816080936E00109281008091810082600F
:1008F000809381008091810081608093810080914C
:1009000080008160809380008091B100846080933A
:10091000B1008091B00081608093B00080917A0036
:10092000846080937A0080917A00826080937A005C
:1009300080917A00816080937A0080917A0080684B
:1009400080937A001092C10064E084E10E948002EA
:1009500060E087E00E94390160E086E00E94390192
:1009600061E084E00E94390100E010E0412C50EC8D
:10097000552E59E7652E54EC752EE3EBF0E03490DC
:10098000EFE9F0E08491E82FF0E0EE0FFF1FE05771
:10099000FF4FC591D49110928D0110928E0110924B
:1009A0008F01109290011092910161E085E00E9408
:1009B000390160E085E00E940B010E946A014B0151
:1009C0005C0142E1C42ED12CE12CF12C0E946A0181
:1009D000681979098A099B09683E73408105910568
:1009E000A8F3F1E0CF1AD108E108F10828EE820E51
:1009F00023E0921EA11CB11CC114D104E104F10436
:100A000029F761E085E00E940B018BE990E00197F6
:100A1000F1F760E085E00E94390180E991E02881EA
:100A2000232199F40197D9F74092850150928601CC
:100A300060928701709288014092890150928A01E8
:100A400060928B0170928C0161C080E991E02881F5
:100A5000232119F00197D9F7E7CF98E2A92E20E8D2
:100A6000B22E912C80E991E02881232119F401977D
:100A7000D9F7DACF0E946A016B017C0180E991E02D
:100A80002881232119F00197D9F7CECF0E946A015E
:100A90006C197D098E099F096932710581059105DF
:100AA00038F0E92DF0E0EB57FE4F80858B298087E9
:100AB000B69419F4939480E8B82EAA94A110D2CFDA
:100AC00061E085E00E94390161E085E00E940B0150
:100AD00060918D0170E090E080E00E943D0760939E
:100AE00085017093860180938701909388016091BE
:100AF0008F0170E090E080E00E943D0760938901E3
:100B000070938A0180938B0190938C0187E00E94FF
:100B1000E200019709F04BC080E00E94250388E1C4
:100B200091E00E94930161E084E00E940B0186E065
:100B30000E94E200019709F043C081E00E94250372
:100B400081E491E00E94930161E084E00E940B0146
:100B500082E00E9425038FE591E00E94930160915D
:100B6000890170918A0180918B0190918C0142E002
:100B70000E94390383E00E9425038CE691E00E94E5
:100B80009301609185017091860180918701909118
:100B9000880142E00E94390387E791E00E949301B7
:100BA0000115110509F4E9CE0E940000E6CE80E0AF
:100BB0000E9425038CE291E00E94930160E0B4CF93
:100BC00081E00E94250381E591E00E94930160E0AD
:100BD000BCCFE2E9F1E01382128284E091E09183DC
:100BE00080838DE084838FEF85838CE086838BE028
:100BF00087838AE0808789E0818788E082871386FF
:100C0000148615861686178661E080E10C948002B2
:100C1000A1E21A2EAA1BBB1BFD010DC0AA1FBB1F00
:100C2000EE1FFF1FA217B307E407F50720F0A21B72
:100C3000B30BE40BF50B661F771F881F991F1A94DF
:100C400069F760957095809590959B01AC01BD0109
:100C5000CF0108955058BB27AA270E9442060C9442
:100C6000B5070E94A70738F00E94AE0720F039F4BC
:100C70009F3F19F426F40C94A4070EF4E095E7FBCB
:100C80000C949E07E92F0E94C60758F3BA17620713
:100C900073078407950720F079F4A6F50C94E8070C
:100CA0000EF4E0950B2EBA2FA02D0B01B901900187
:100CB0000C01CA01A0011124FF27591B99F0593FCB
:100CC00050F4503E68F11A16F040A22F232F342F13
:100CD0004427585FF3CF469537952795A795F04061
:100CE0005395C9F77EF41F16BA0B620B730B840B76
:100CF000BAF09150A1F0FF0FBB1F661F771F881F2E
:100D0000C2F70EC0BA0F621F731F841F48F4879585
:100D100077956795B795F7959E3F08F0B0CF939577
:100D2000880F08F09927EE0F9795879508950E94F0
:100D30007A0708F481E008950E94B0060C94B50784
:100D40000E94AE0758F00E94A70740F029F45F3FC9
:100D500029F00C949E0751110C94E9070C94A407F8
:100D60000E94C60768F39923B1F3552391F3951BAD
:100D7000550BBB27AA2762177307840738F09F5FBC
:100D80005F4F220F331F441FAA1FA9F335D00E2E29
:100D90003AF0E0E832D091505040E695001CCAF796
:100DA0002BD0FE2F29D0660F771F881FBB1F261759
:100DB00037074807AB07B0E809F0BB0B802DBF0130
:100DC000FF2793585F4F3AF09E3F510578F00C94FF
:100DD0009E070C94E9075F3FE4F3983ED4F38695B1
:100DE00077956795B795F7959F5FC9F7880F911D20
:100DF0009695879597F90895E1E0660F771F881F0C
:100E0000BB1F621773078407BA0720F0621B730BBE
:100E1000840BBA0BEE1F88F7E09508950E94CE0769
:100E200088F09F5798F0B92F9927B751B0F0E1F0AB
:100E3000660F771F881F991F1AF0BA95C9F714C05B
:100E4000B13091F00E94E807B1E008950C94E807F2
:100E5000672F782F8827B85F39F0B93FCCF3869594
:100E600077956795B395D9F73EF4909580957095F1
:100E700061957F4F8F4F9F4F0895E89409C097FB6E
:100E80003EF490958095709561957F4F8F4F9F4F61
:100E90009923A9F0F92F96E9BB279395F6958795A5
:100EA00077956795B795F111F8CFFAF4BB0F11F468
:100EB00060FF1BC06F5F7F4F8F4F9F4F16C088230F
:100EC00011F096E911C0772321F09EE8872F762F45
:100ED00005C0662371F096E8862F70E060E02AF086
:100EE0009A95660F771F881FDAF7880F9695879572
:100EF00097F90895990F0008550FAA0BE0E8FEEF47
:100F000016161706E807F907C0F012161306E407CD
:100F1000F50798F0621B730B840B950B39F40A26C6
:100F200061F0232B242B252B21F408950A2609F4A4
:100F3000A140A6958FEF811D811D089597F99F67A8
:100F400080E870E060E008959FEF80EC0895002451
:100F50000A941616170618060906089500240A941E
:100F600012161306140605060895092E0394000CA4
:100F700011F4882352F0BB0F40F4BF2B11F460FF33
:100F800004C06F5F7F4F8F4F9F4F089557FD90585C
:100F9000440F551F59F05F3F71F04795880F97FB3D
:100FA000991F61F09F3F79F08795089512161306F7
:100FB0001406551FF2CF4695F1DF08C01616170626
:100FC0001806991FF1CF869571056105089408955B
:100FD000E894BB2766277727CB0197F908950E94ED
:100FE0007A0708F48FEF08950E9407080C94B5075C
:100FF0000E94A70738F00E94AE0720F0952311F059
:101000000C949E070C94A40711240C94E9070E94E9
:10101000C60770F3959FC1F3950F50E0551F629F6F
:10102000F001729FBB27F00DB11D639FAA27F00D41
:10103000B11DAA1F649F6627B00DA11D661F829F68
:101040002227B00DA11D621F739FB00DA11D621F4D
:10105000839FA00D611D221F749F3327A00D611D6A
:10106000231F849F600D211D822F762F6A2F11244C
:101070009F5750409AF0F1F088234AF0EE0FFF1F7F
:10108000BB1F661F771F881F91505040A9F79E3FD6
:10109000510580F00C949E070C94E9075F3FE4F340
:1010A000983ED4F3869577956795B795F795E7952C
:1010B0009F5FC1F7FE2B880F911D9695879597F935
:1010C00008950E947A07880B990B0895EE0FFF1F71
:0C10D0000590F491E02D0994F894FFCFF6
:1010DC000000000033038C0090018F016E616E00E4
:1010EC00696E66006F7666004C504720204741536E
:1010FC0020204C45414B414745203B004E4F204C56
:10110C00504720474153204C45414B414745203BDC
:10111C0000434F204C45414B414745202020202087
:10112C00004E4F20434F204C45414B414745005406
:10113C00656D7065726174757265200048756D69B6
:0C114C0064697479202000202520000038
:00000001FF
